{
  "contractName": "PerpetualDEX",
  "abi": [
    {
      "inputs": [
        {
          "internalType": "address",
          "name": "_collateralToken",
          "type": "address"
        }
      ],
      "stateMutability": "nonpayable",
      "type": "constructor"
    },
    {
      "anonymous": false,
      "inputs": [
        {
          "indexed": false,
          "internalType": "uint256",
          "name": "fundingPayment",
          "type": "uint256"
        }
      ],
      "name": "FundingPaid",
      "type": "event"
    },
    {
      "anonymous": false,
      "inputs": [
        {
          "indexed": true,
          "internalType": "address",
          "name": "trader",
          "type": "address"
        },
        {
          "indexed": false,
          "internalType": "uint256",
          "name": "positionId",
          "type": "uint256"
        },
        {
          "indexed": false,
          "internalType": "uint256",
          "name": "size",
          "type": "uint256"
        },
        {
          "indexed": false,
          "internalType": "uint256",
          "name": "entryPrice",
          "type": "uint256"
        },
        {
          "indexed": false,
          "internalType": "enum PerpetualDEX.Side",
          "name": "side",
          "type": "uint8"
        },
        {
          "indexed": false,
          "internalType": "uint256",
          "name": "profit",
          "type": "uint256"
        }
      ],
      "name": "PositionClosed",
      "type": "event"
    },
    {
      "anonymous": false,
      "inputs": [
        {
          "indexed": true,
          "internalType": "address",
          "name": "trader",
          "type": "address"
        },
        {
          "indexed": false,
          "internalType": "uint256",
          "name": "positionId",
          "type": "uint256"
        },
        {
          "indexed": false,
          "internalType": "uint256",
          "name": "size",
          "type": "uint256"
        },
        {
          "indexed": false,
          "internalType": "uint256",
          "name": "entryPrice",
          "type": "uint256"
        },
        {
          "indexed": false,
          "internalType": "enum PerpetualDEX.Side",
          "name": "side",
          "type": "uint8"
        }
      ],
      "name": "PositionOpened",
      "type": "event"
    },
    {
      "inputs": [],
      "name": "admin",
      "outputs": [
        {
          "internalType": "address",
          "name": "",
          "type": "address"
        }
      ],
      "stateMutability": "view",
      "type": "function",
      "constant": true
    },
    {
      "inputs": [
        {
          "internalType": "address",
          "name": "",
          "type": "address"
        }
      ],
      "name": "collateralBalances",
      "outputs": [
        {
          "internalType": "uint256",
          "name": "",
          "type": "uint256"
        }
      ],
      "stateMutability": "view",
      "type": "function",
      "constant": true
    },
    {
      "inputs": [],
      "name": "collateralToken",
      "outputs": [
        {
          "internalType": "contract IXRC20",
          "name": "",
          "type": "address"
        }
      ],
      "stateMutability": "view",
      "type": "function",
      "constant": true
    },
    {
      "inputs": [],
      "name": "feeRate",
      "outputs": [
        {
          "internalType": "uint256",
          "name": "",
          "type": "uint256"
        }
      ],
      "stateMutability": "view",
      "type": "function",
      "constant": true
    },
    {
      "inputs": [],
      "name": "fundingRate",
      "outputs": [
        {
          "internalType": "uint256",
          "name": "",
          "type": "uint256"
        }
      ],
      "stateMutability": "view",
      "type": "function",
      "constant": true
    },
    {
      "inputs": [],
      "name": "indexPrice",
      "outputs": [
        {
          "internalType": "uint256",
          "name": "",
          "type": "uint256"
        }
      ],
      "stateMutability": "view",
      "type": "function",
      "constant": true
    },
    {
      "inputs": [],
      "name": "lastFundingTimestamp",
      "outputs": [
        {
          "internalType": "uint256",
          "name": "",
          "type": "uint256"
        }
      ],
      "stateMutability": "view",
      "type": "function",
      "constant": true
    },
    {
      "inputs": [
        {
          "internalType": "uint256",
          "name": "",
          "type": "uint256"
        }
      ],
      "name": "positions",
      "outputs": [
        {
          "internalType": "address",
          "name": "trader",
          "type": "address"
        },
        {
          "internalType": "uint256",
          "name": "size",
          "type": "uint256"
        },
        {
          "internalType": "uint256",
          "name": "entryPrice",
          "type": "uint256"
        },
        {
          "internalType": "enum PerpetualDEX.Side",
          "name": "side",
          "type": "uint8"
        }
      ],
      "stateMutability": "view",
      "type": "function",
      "constant": true
    },
    {
      "inputs": [
        {
          "internalType": "uint256",
          "name": "size",
          "type": "uint256"
        },
        {
          "internalType": "uint256",
          "name": "entryPrice",
          "type": "uint256"
        },
        {
          "internalType": "enum PerpetualDEX.Side",
          "name": "side",
          "type": "uint8"
        }
      ],
      "name": "openPosition",
      "outputs": [],
      "stateMutability": "nonpayable",
      "type": "function"
    },
    {
      "inputs": [
        {
          "internalType": "uint256",
          "name": "positionId",
          "type": "uint256"
        }
      ],
      "name": "closePosition",
      "outputs": [],
      "stateMutability": "nonpayable",
      "type": "function"
    },
    {
      "inputs": [
        {
          "internalType": "uint256",
          "name": "newPrice",
          "type": "uint256"
        }
      ],
      "name": "updateIndexPrice",
      "outputs": [],
      "stateMutability": "nonpayable",
      "type": "function"
    },
    {
      "inputs": [],
      "name": "payFunding",
      "outputs": [],
      "stateMutability": "nonpayable",
      "type": "function"
    }
  ],
  "bytecode": "0x60806040523480156200001157600080fd5b50604051620019213803806200192183398181016040528101906200003791906200014a565b336000806101000a81548173ffffffffffffffffffffffffffffffffffffffff021916908373ffffffffffffffffffffffffffffffffffffffff16021790555080600160006101000a81548173ffffffffffffffffffffffffffffffffffffffff021916908373ffffffffffffffffffffffffffffffffffffffff1602179055504260028190555060006003819055506103e86004819055506101f4600581905550506200017c565b600080fd5b600073ffffffffffffffffffffffffffffffffffffffff82169050919050565b60006200011282620000e5565b9050919050565b620001248162000105565b81146200013057600080fd5b50565b600081519050620001448162000119565b92915050565b600060208284031215620001635762000162620000e0565b5b6000620001738482850162000133565b91505092915050565b611795806200018c6000396000f3fe608060405234801561001057600080fd5b50600436106100b45760003560e01c8063978bbdb911610071578063978bbdb91461017b57806399fbab8814610199578063a126d601146101cc578063aaa5a2ad146101e8578063b2016bd4146101f2578063f851a44014610210576100b4565b80630ac02555146100b957806310bace8c146100d557806329bc969d146100f357806341d3c84c146101235780635fbf81cc1461014157806393ca34151461015d575b600080fd5b6100d360048036038101906100ce9190610e93565b61022e565b005b6100dd6102f3565b6040516100ea9190610ecf565b60405180910390f35b61010d60048036038101906101089190610f48565b6102f9565b60405161011a9190610ecf565b60405180910390f35b61012b610311565b6040516101389190610ecf565b60405180910390f35b61015b60048036038101906101569190610f9a565b610317565b005b6101656106ac565b6040516101729190610ecf565b60405180910390f35b6101836106b2565b6040516101909190610ecf565b60405180910390f35b6101b360048036038101906101ae9190610e93565b6106b8565b6040516101c39493929190611073565b60405180910390f35b6101e660048036038101906101e19190610e93565b610725565b005b6101f0610b66565b005b6101fa610ca4565b6040516102079190611117565b60405180910390f35b610218610cca565b6040516102259190611132565b60405180910390f35b60008054906101000a900473ffffffffffffffffffffffffffffffffffffffff1673ffffffffffffffffffffffffffffffffffffffff163373ffffffffffffffffffffffffffffffffffffffff16146102bc576040517f08c379a00000000000000000000000000000000000000000000000000000000081526004016102b3906111d0565b60405180910390fd5b806004819055506000600254426102d3919061121f565b905060008111156102ef576102e781610cee565b426002819055505b5050565b60045481565b60076020528060005260406000206000915090505481565b60035481565b6000831161035a576040517f08c379a00000000000000000000000000000000000000000000000000000000081526004016103519061129f565b60405180910390fd5b6000821161039d576040517f08c379a000000000000000000000000000000000000000000000000000000000815260040161039490611331565b60405180910390fd5b600060018111156103b1576103b0610ffc565b5b8160018111156103c4576103c3610ffc565b5b14806103f357506001808111156103de576103dd610ffc565b5b8160018111156103f1576103f0610ffc565b5b145b610432576040517f08c379a00000000000000000000000000000000000000000000000000000000081526004016104299061139d565b60405180910390fd5b6000670de0b6b3a7640000600454848661044c91906113bd565b61045691906113bd565b610460919061142e565b905080600760003373ffffffffffffffffffffffffffffffffffffffff1673ffffffffffffffffffffffffffffffffffffffff1681526020019081526020016000205410156104e4576040517f08c379a00000000000000000000000000000000000000000000000000000000081526004016104db906114ab565b60405180910390fd5b600660405180608001604052803373ffffffffffffffffffffffffffffffffffffffff16815260200186815260200185815260200184600181111561052c5761052b610ffc565b5b815250908060018154018082558091505060019003906000526020600020906004020160009091909190915060008201518160000160006101000a81548173ffffffffffffffffffffffffffffffffffffffff021916908373ffffffffffffffffffffffffffffffffffffffff160217905550602082015181600101556040820151816002015560608201518160030160006101000a81548160ff021916908360018111156105de576105dd610ffc565b5b0217905550505080600760003373ffffffffffffffffffffffffffffffffffffffff1673ffffffffffffffffffffffffffffffffffffffff1681526020019081526020016000206000828254610634919061121f565b925050819055506000600160068054905061064f919061121f565b90503373ffffffffffffffffffffffffffffffffffffffff167f22525261af7a4917e8be47f89149ad7abb0d81058d0a105e9756a4e40bd5b2e88287878760405161069d94939291906114cb565b60405180910390a25050505050565b60025481565b60055481565b600681815481106106c857600080fd5b90600052602060002090600402016000915090508060000160009054906101000a900473ffffffffffffffffffffffffffffffffffffffff16908060010154908060020154908060030160009054906101000a900460ff16905084565b600680549050811061076c576040517f08c379a00000000000000000000000000000000000000000000000000000000081526004016107639061155c565b60405180910390fd5b6000600682815481106107825761078161157c565b5b906000526020600020906004020190503373ffffffffffffffffffffffffffffffffffffffff168160000160009054906101000a900473ffffffffffffffffffffffffffffffffffffffff1673ffffffffffffffffffffffffffffffffffffffff1614610824576040517f08c379a000000000000000000000000000000000000000000000000000000000815260040161081b9061161d565b60405180910390fd5b60008160010154905060008260020154905060008360030160009054906101000a900460ff169050600061085786610d53565b905060006127106005548361086c91906113bd565b610876919061142e565b905060008183610886919061121f565b9050670de0b6b3a764000060045487876108a091906113bd565b6108aa91906113bd565b6108b4919061142e565b600760003373ffffffffffffffffffffffffffffffffffffffff1673ffffffffffffffffffffffffffffffffffffffff1681526020019081526020016000206000828254610902919061163d565b9250508190555081600760008060009054906101000a900473ffffffffffffffffffffffffffffffffffffffff1673ffffffffffffffffffffffffffffffffffffffff1673ffffffffffffffffffffffffffffffffffffffff1681526020019081526020016000206000828254610979919061163d565b925050819055503373ffffffffffffffffffffffffffffffffffffffff167f3c35f9aeba0e938ec1359b8abda46ace45b198167ad7fea0dd1fca374224427489888888866040516109ce959493929190611671565b60405180910390a2600660016006805490506109ea919061121f565b815481106109fb576109fa61157c565b5b906000526020600020906004020160068981548110610a1d57610a1c61157c565b5b90600052602060002090600402016000820160009054906101000a900473ffffffffffffffffffffffffffffffffffffffff168160000160006101000a81548173ffffffffffffffffffffffffffffffffffffffff021916908373ffffffffffffffffffffffffffffffffffffffff16021790555060018201548160010155600282015481600201556003820160009054906101000a900460ff168160030160006101000a81548160ff02191690836001811115610ade57610add610ffc565b5b02179055509050506006805480610af857610af76116c4565b5b6001900381819060005260206000209060040201600080820160006101000a81549073ffffffffffffffffffffffffffffffffffffffff0219169055600182016000905560028201600090556003820160006101000a81549060ff0219169055505090555050505050505050565b600060025442610b76919061121f565b905060008111610bbb576040517f08c379a0000000000000000000000000000000000000000000000000000000008152600401610bb29061173f565b60405180910390fd5b60006201518082600354600680549050610bd591906113bd565b610bdf91906113bd565b610be9919061142e565b905080600760008060009054906101000a900473ffffffffffffffffffffffffffffffffffffffff1673ffffffffffffffffffffffffffffffffffffffff1673ffffffffffffffffffffffffffffffffffffffff1681526020019081526020016000206000828254610c5b919061163d565b925050819055507f7052e674e5d83ba741a3bc9f3675ddb61e9472cf8470386d1c2a21ed9c0b87fc81604051610c919190610ecf565b60405180910390a1426002819055505050565b600160009054906101000a900473ffffffffffffffffffffffffffffffffffffffff1681565b60008054906101000a900473ffffffffffffffffffffffffffffffffffffffff1681565b6004548162015180670de0b6b3a7640000600454610d0c91906113bd565b670de0b6b3a7640000600454610d2291906113bd565b610d2c919061121f565b610d3691906113bd565b610d40919061142e565b610d4a919061142e565b60038190555050565b60008060068381548110610d6a57610d6961157c565b5b9060005260206000209060040201905060008160010154905060008260020154905060008360030160009054906101000a900460ff1690506000600454905060006001811115610dbd57610dbc610ffc565b5b826001811115610dd057610dcf610ffc565b5b03610e1657670de0b6b3a76400008484610dea91906113bd565b8583610df691906113bd565b610e00919061121f565b610e0a919061142e565b95505050505050610e53565b670de0b6b3a76400008482610e2b91906113bd565b8585610e3791906113bd565b610e41919061121f565b610e4b919061142e565b955050505050505b919050565b600080fd5b6000819050919050565b610e7081610e5d565b8114610e7b57600080fd5b50565b600081359050610e8d81610e67565b92915050565b600060208284031215610ea957610ea8610e58565b5b6000610eb784828501610e7e565b91505092915050565b610ec981610e5d565b82525050565b6000602082019050610ee46000830184610ec0565b92915050565b600073ffffffffffffffffffffffffffffffffffffffff82169050919050565b6000610f1582610eea565b9050919050565b610f2581610f0a565b8114610f3057600080fd5b50565b600081359050610f4281610f1c565b92915050565b600060208284031215610f5e57610f5d610e58565b5b6000610f6c84828501610f33565b91505092915050565b60028110610f8257600080fd5b50565b600081359050610f9481610f75565b92915050565b600080600060608486031215610fb357610fb2610e58565b5b6000610fc186828701610e7e565b9350506020610fd286828701610e7e565b9250506040610fe386828701610f85565b9150509250925092565b610ff681610f0a565b82525050565b7f4e487b7100000000000000000000000000000000000000000000000000000000600052602160045260246000fd5b6002811061103c5761103b610ffc565b5b50565b600081905061104d8261102b565b919050565b600061105d8261103f565b9050919050565b61106d81611052565b82525050565b60006080820190506110886000830187610fed565b6110956020830186610ec0565b6110a26040830185610ec0565b6110af6060830184611064565b95945050505050565b6000819050919050565b60006110dd6110d86110d384610eea565b6110b8565b610eea565b9050919050565b60006110ef826110c2565b9050919050565b6000611101826110e4565b9050919050565b611111816110f6565b82525050565b600060208201905061112c6000830184611108565b92915050565b60006020820190506111476000830184610fed565b92915050565b600082825260208201905092915050565b7f4f6e6c792061646d696e2063616e2075706461746520696e646578207072696360008201527f6500000000000000000000000000000000000000000000000000000000000000602082015250565b60006111ba60218361114d565b91506111c58261115e565b604082019050919050565b600060208201905081810360008301526111e9816111ad565b9050919050565b7f4e487b7100000000000000000000000000000000000000000000000000000000600052601160045260246000fd5b600061122a82610e5d565b915061123583610e5d565b925082820390508181111561124d5761124c6111f0565b5b92915050565b7f53697a65206d7573742062652067726561746572207468616e20300000000000600082015250565b6000611289601b8361114d565b915061129482611253565b602082019050919050565b600060208201905081810360008301526112b88161127c565b9050919050565b7f456e747279207072696365206d7573742062652067726561746572207468616e60008201527f2030000000000000000000000000000000000000000000000000000000000000602082015250565b600061131b60228361114d565b9150611326826112bf565b604082019050919050565b6000602082019050818103600083015261134a8161130e565b9050919050565b7f496e76616c696420736964650000000000000000000000000000000000000000600082015250565b6000611387600c8361114d565b915061139282611351565b602082019050919050565b600060208201905081810360008301526113b68161137a565b9050919050565b60006113c882610e5d565b91506113d383610e5d565b92508282026113e181610e5d565b915082820484148315176113f8576113f76111f0565b5b5092915050565b7f4e487b7100000000000000000000000000000000000000000000000000000000600052601260045260246000fd5b600061143982610e5d565b915061144483610e5d565b925082611454576114536113ff565b5b828204905092915050565b7f496e73756666696369656e7420636f6c6c61746572616c000000000000000000600082015250565b600061149560178361114d565b91506114a08261145f565b602082019050919050565b600060208201905081810360008301526114c481611488565b9050919050565b60006080820190506114e06000830187610ec0565b6114ed6020830186610ec0565b6114fa6040830185610ec0565b6115076060830184611064565b95945050505050565b7f506f736974696f6e20646f6573206e6f74206578697374000000000000000000600082015250565b600061154660178361114d565b915061155182611510565b602082019050919050565b6000602082019050818103600083015261157581611539565b9050919050565b7f4e487b7100000000000000000000000000000000000000000000000000000000600052603260045260246000fd5b7f4f6e6c7920746865206f776e65722063616e20636c6f73652074686520706f7360008201527f6974696f6e000000000000000000000000000000000000000000000000000000602082015250565b600061160760258361114d565b9150611612826115ab565b604082019050919050565b60006020820190508181036000830152611636816115fa565b9050919050565b600061164882610e5d565b915061165383610e5d565b925082820190508082111561166b5761166a6111f0565b5b92915050565b600060a0820190506116866000830188610ec0565b6116936020830187610ec0565b6116a06040830186610ec0565b6116ad6060830185611064565b6116ba6080830184610ec0565b9695505050505050565b7f4e487b7100000000000000000000000000000000000000000000000000000000600052603160045260246000fd5b7f4e6f742074696d6520666f722066756e64696e67207061796d656e7420796574600082015250565b600061172960208361114d565b9150611734826116f3565b602082019050919050565b600060208201905081810360008301526117588161171c565b905091905056fea264697066735822122099a62993f6597019ce8fb805b97cb23714b75b09d1e9b05bafd43a8d5213967f64736f6c63430008110033",
  "immutableReferences": {},
  "source": "// SPDX-License-Identifier: MIT\r\npragma solidity ^0.8.17;\r\n\r\nimport \"./IXRC20.sol\";\r\n\r\ncontract PerpetualDEX {\r\n    address public admin;\r\n    IXRC20 public collateralToken;\r\n    uint256 public lastFundingTimestamp;\r\n    uint256 public fundingRate;\r\n    uint256 public indexPrice;\r\n    uint256 public feeRate; // Trading fee rate, e.g., 0.005 for 0.5%\r\n\r\n    enum Side { LONG, SHORT }\r\n\r\n    struct Position {\r\n        address trader;\r\n        uint256 size;\r\n        uint256 entryPrice;\r\n        Side side;\r\n    }\r\n\r\n    Position[] public positions;\r\n    mapping(address => uint256) public collateralBalances;\r\n\r\n    event PositionOpened(address indexed trader, uint256 positionId, uint256 size, uint256 entryPrice, Side side);\r\n    event PositionClosed(address indexed trader, uint256 positionId, uint256 size, uint256 entryPrice, Side side, uint256 profit);\r\n    event FundingPaid(uint256 fundingPayment);\r\n\r\n    constructor(address _collateralToken) {\r\n        admin = msg.sender;\r\n        collateralToken = IXRC20(_collateralToken);\r\n        lastFundingTimestamp = block.timestamp;\r\n        fundingRate = 0;\r\n        indexPrice = 1000; // Initial index price\r\n        feeRate = 500; // 0.5% fee\r\n    }\r\n\r\n    function openPosition(uint256 size, uint256 entryPrice, Side side) external {\r\n        require(size > 0, \"Size must be greater than 0\");\r\n        require(entryPrice > 0, \"Entry price must be greater than 0\");\r\n        require(side == Side.LONG || side == Side.SHORT, \"Invalid side\");\r\n\r\n        // Calculate collateral required\r\n        uint256 collateralRequired = (size * entryPrice) * indexPrice / 1e18;\r\n\r\n        require(collateralBalances[msg.sender] >= collateralRequired, \"Insufficient collateral\");\r\n\r\n        positions.push(Position({\r\n            trader: msg.sender,\r\n            size: size,\r\n            entryPrice: entryPrice,\r\n            side: side\r\n        }));\r\n\r\n        collateralBalances[msg.sender] -= collateralRequired;\r\n\r\n        uint256 positionId = positions.length - 1;\r\n        emit PositionOpened(msg.sender, positionId, size, entryPrice, side);\r\n    }\r\n\r\n    function closePosition(uint256 positionId) external {\r\n        require(positionId < positions.length, \"Position does not exist\");\r\n\r\n        Position storage position = positions[positionId];\r\n        require(position.trader == msg.sender, \"Only the owner can close the position\");\r\n\r\n        uint256 size = position.size;\r\n        uint256 entryPrice = position.entryPrice;\r\n        Side side = position.side;\r\n\r\n        uint256 pnl = calculateProfitAndLoss(positionId);\r\n\r\n        uint256 fee = (pnl * feeRate) / 1e4;\r\n        uint256 profit = pnl - fee;\r\n\r\n        collateralBalances[msg.sender] += (entryPrice * size * indexPrice) / 1e18;\r\n        collateralBalances[admin] += fee;\r\n\r\n        emit PositionClosed(msg.sender, positionId, size, entryPrice, side, profit);\r\n\r\n        // Remove the closed position by moving the last position to this index and truncating the array\r\n        positions[positionId] = positions[positions.length - 1];\r\n        positions.pop();\r\n    }\r\n\r\n    function calculateProfitAndLoss(uint256 positionId) internal view returns (uint256) {\r\n        Position storage position = positions[positionId];\r\n        uint256 size = position.size;\r\n        uint256 entryPrice = position.entryPrice;\r\n        Side side = position.side;\r\n\r\n        uint256 currentPrice = indexPrice; // Replace with a real price source.\r\n\r\n        if (side == Side.LONG) {\r\n            return (currentPrice * size - entryPrice * size) / 1e18;\r\n        } else {\r\n            return (entryPrice * size - currentPrice * size) / 1e18;\r\n        }\r\n    }\r\n\r\n    function updateIndexPrice(uint256 newPrice) external {\r\n        require(msg.sender == admin, \"Only admin can update index price\");\r\n        indexPrice = newPrice;\r\n        uint256 timeElapsed = block.timestamp - lastFundingTimestamp;\r\n        if (timeElapsed > 0) {\r\n            updateFundingRate(timeElapsed);\r\n            lastFundingTimestamp = block.timestamp;\r\n        }\r\n    }\r\n\r\n    function updateFundingRate(uint256 timeElapsed) internal {\r\n        // Implement a mechanism to calculate and update the funding rate based on timeElapsed.\r\n        // This is a placeholder for educational purposes.\r\n        // Formula: fundingRate = (indexPrice - previousIndexPrice) / previousIndexPrice * 86400 / timeElapsed\r\n        fundingRate = (indexPrice * 1e18 - indexPrice * 1e18) * 86400 / timeElapsed / indexPrice;\r\n    }\r\n\r\n    function payFunding() external {\r\n        uint256 timeElapsed = block.timestamp - lastFundingTimestamp;\r\n        require(timeElapsed > 0, \"Not time for funding payment yet\");\r\n        uint256 fundingPayment = (positions.length * fundingRate * timeElapsed) / 86400;\r\n        collateralBalances[admin] += fundingPayment;\r\n        emit FundingPaid(fundingPayment);\r\n        lastFundingTimestamp = block.timestamp;\r\n    }\r\n}",
  "sourcePath": "C:\\development\\ebc\\blockchain-contracts\\contracts\\PerpectualDex.sol",
  "compiler": {
    "name": "solc",
    "version": "0.8.17+commit.8df45f5f.Emscripten.clang"
  },
  "schemaVersion": "3.4.11",
  "updatedAt": "2023-10-25T07:49:45.634Z",
  "networkType": "ethereum",
  "devdoc": {
    "kind": "dev",
    "methods": {},
    "version": 1
  },
  "userdoc": {
    "kind": "user",
    "methods": {},
    "version": 1
  }
}